:020000040800F2
:1000000000000320CD0400081D0500081D050008A0
:100010001D0500081D0500081D0500080000000062
:100020000000000000000000000000001D050008A6
:100030001D050008000000001D0500081D05000842
:100040001D0500081D0500081D0500081D05000808
:100050001D0500081D0500081D0500081D050008F8
:100060001D0500081D0500081D0500081D050008E8
:100070001D0500081D0500081D0500081D050008D8
:100080001D0500081D0500081D0500081D050008C8
:100090001D0500081D0500081D0500081D050008B8
:1000A0001D0500081D0500081D0500081D050008A8
:1000B0001D0500081D0500081D0500081D05000898
:1000C0001D0500081D0500081D0500081D05000888
:1000D0001D0500081D0500081D0500081D05000878
:1000E0001D0500081D0500081D0500081D05000868
:1000F0001D0500081D0500081D0500081D05000858
:100100001D0500081D0500081D0500081D05000847
:100110001D0500081D0500081D0500081D05000837
:100120001D0500081D0500081D0500081D05000827
:100130001D0500081D0500081D0500081D05000817
:100140001D0500081D0500081D0500081D05000807
:100150001D0500081D0500081D0500081D050008F7
:100160001D0500081D0500081D0500081D050008E7
:100170001D0500081D0500081D0500080000000001
:100180001D0500081D0500081D0500081D050008C7
:100190001D0500081D0500081D0500081D050008B7
:0C01A0001D0500081D0500081D050008D5
:1001AC0010B5054C237833B9044B13B10448AFF3A5
:1001BC0000800123237010BD00000020000000000F
:1001CC006805000808B5034B1BB103490348AFF39E
:1001DC00008008BD00000000040000206805000835
:1001EC00034AD2F8883043F47003C2F88830704761
:1001FC0000ED00E000B583B000F00EF900F032F92C
:10020C007C4B9A6942F480329A619A6942F40002FA
:10021C009A619A6942F080429A619A6942F08062CE
:10022C009A61B7E0734B9A6942F400029A619A6939
:10023C0042F080429A619A6942F080629A619A69AE
:10024C0042F001029A616C4B01221A7000236B4A36
:10025C0013706B4A13706B4A1370002300938BE07E
:10026C00644B9A6942F001029A619A6942F08002E9
:10027C009A619A6942F080429A619A6942F080626E
:10028C009A6101235C4A13705C4A137000235C4A28
:10029C0013705C4A1370E0E7564B9A6942F0010206
:1002AC009A619A6942F080029A619A6942F480429A
:1002BC009A619A6942F080629A6101234E4A1370E6
:1002CC004E4A13704E4A13704E4B00221A70C4E7FC
:1002DC00484B9A6942F001029A619A6942F0800295
:1002EC009A619A6942F480429A619A6942F48062F6
:1002FC009A610123404A1370404A1370404A1370AC
:10030C00404A1370A9E73B4B9A6942F480329A61D8
:10031C009A6942F400029A619A6942F080429A61A9
:10032C009A6942F080629A610023334A1370334A0F
:10033C001370334A1370334A13708EE72D4B9A693E
:10034C0042F001029A619A6942F080029A619A69BC
:10035C0042F480429A619A6942F480629A61012364
:10036C00254A1370254A1370254A1370254A1370B9
:10037C0073E7009B01330093009A234B9A42F8D900
:10038C0002E0224B00221A7000230193019BB3F56B
:10039C007A7F2BD31E4B1B6913F4005FF1D01B4BE0
:1003AC001B78002BF0D1194B01221A70194A1378C3
:1003BC000133DBB21370062B02D9134601221A70DB
:1003CC00144B1B78013B052B3FF647AF01A252F8AB
:1003DC0023F000BF310200086D020008A5020008DE
:1003EC00DD0200081303000849030008019B0133D8
:1003FC000193CBE7000402401F0000201E000020E8
:10040C001D0000201C0000209F8601002000002001
:10041C000008024021000020104AD2F8303843F086
:10042C000603C2F830380E4BD3F8002442F4804255
:10043C00C3F80024D3F8042422F08002C3F8042467
:10044C00D3F8082442F48042C3F80824D3F81824C3
:10045C0042F40002C3F81824704700BF0030024079
:10046C0000000240134A136B43F04E031363124B0C
:10047C001A6842F080521A609A6942F080429A617E
:10048C001A6842F001021A609A6942F480329A6149
:10049C000A4A116841F480411160916941F40001EC
:1004AC0091611A6842F480121A609A6942F0806273
:1004BC009A6170470038024000040240000C024070
:1004CC00DFF834D00D480E490E4A002302E0D45810
:1004DC00C4500433C4188C42F9D30B4A0B4C002380
:1004EC0001E013600432A242FBD3FFF779FE00F067
:1004FC0011F8FFF77FFE704700000320000000207A
:10050C0000000020880500080000002024000020C6
:10051C00FEE7000070B50D4D0D4C641BA4100026B9
:10052C00A64209D10B4D0C4C00F018F8641BA4101A
:10053C000026A64205D170BD55F8043B98470136FC
:10054C00EEE755F8043B98470136F2E780050008C2
:10055C00800500088005000884050008F8B500BF78
:10056C00F8BC08BC9E467047F8B500BFF8BC08BC88
:04057C009E467047E0
:04058000D10100089D
:04058400AD010008BD
:04000005080004CD1E
:00000001FF
